{
  "_format": "hh3-artifact-1",
  "contractName": "AIJudgeCommitReveal",
  "sourceName": "contracts/AIJudgeCommitReveal.sol",
  "abi": [
    {
      "anonymous": false,
      "inputs": [
        {
          "indexed": true,
          "internalType": "uint256",
          "name": "bountyId",
          "type": "uint256"
        },
        {
          "indexed": false,
          "internalType": "bytes",
          "name": "aiReview",
          "type": "bytes"
        }
      ],
      "name": "AllAnswersJudged",
      "type": "event"
    },
    {
      "anonymous": false,
      "inputs": [
        {
          "indexed": true,
          "internalType": "uint256",
          "name": "bountyId",
          "type": "uint256"
        },
        {
          "indexed": true,
          "internalType": "uint256",
          "name": "submissionIndex",
          "type": "uint256"
        },
        {
          "indexed": true,
          "internalType": "address",
          "name": "submitter",
          "type": "address"
        },
        {
          "indexed": false,
          "internalType": "bool",
          "name": "eligible",
          "type": "bool"
        }
      ],
      "name": "AnswerRevealed",
      "type": "event"
    },
    {
      "anonymous": false,
      "inputs": [
        {
          "indexed": true,
          "internalType": "uint256",
          "name": "bountyId",
          "type": "uint256"
        },
        {
          "indexed": true,
          "internalType": "address",
          "name": "owner",
          "type": "address"
        },
        {
          "indexed": false,
          "internalType": "string",
          "name": "title",
          "type": "string"
        },
        {
          "indexed": false,
          "internalType": "uint256",
          "name": "reward",
          "type": "uint256"
        },
        {
          "indexed": false,
          "internalType": "uint256",
          "name": "submissionDeadline",
          "type": "uint256"
        },
        {
          "indexed": false,
          "internalType": "uint256",
          "name": "revealDeadline",
          "type": "uint256"
        }
      ],
      "name": "BountyCreated",
      "type": "event"
    },
    {
      "anonymous": false,
      "inputs": [
        {
          "indexed": true,
          "internalType": "uint256",
          "name": "bountyId",
          "type": "uint256"
        },
        {
          "indexed": true,
          "internalType": "uint256",
          "name": "submissionIndex",
          "type": "uint256"
        },
        {
          "indexed": true,
          "internalType": "address",
          "name": "submitter",
          "type": "address"
        }
      ],
      "name": "CommitmentSubmitted",
      "type": "event"
    },
    {
      "anonymous": false,
      "inputs": [
        {
          "indexed": true,
          "internalType": "uint256",
          "name": "bountyId",
          "type": "uint256"
        },
        {
          "indexed": true,
          "internalType": "uint256",
          "name": "winnerIndex",
          "type": "uint256"
        },
        {
          "indexed": true,
          "internalType": "address",
          "name": "winner",
          "type": "address"
        },
        {
          "indexed": false,
          "internalType": "uint256",
          "name": "reward",
          "type": "uint256"
        }
      ],
      "name": "WinnerFinalized",
      "type": "event"
    },
    {
      "inputs": [],
      "name": "MAX_ANSWER_LENGTH",
      "outputs": [
        {
          "internalType": "uint256",
          "name": "",
          "type": "uint256"
        }
      ],
      "stateMutability": "view",
      "type": "function"
    },
    {
      "inputs": [],
      "name": "MAX_SUBMISSIONS",
      "outputs": [
        {
          "internalType": "uint256",
          "name": "",
          "type": "uint256"
        }
      ],
      "stateMutability": "view",
      "type": "function"
    },
    {
      "inputs": [
        {
          "internalType": "uint256",
          "name": "",
          "type": "uint256"
        }
      ],
      "name": "bounties",
      "outputs": [
        {
          "internalType": "address",
          "name": "owner",
          "type": "address"
        },
        {
          "internalType": "string",
          "name": "title",
          "type": "string"
        },
        {
          "internalType": "string",
          "name": "rubric",
          "type": "string"
        },
        {
          "internalType": "uint256",
          "name": "reward",
          "type": "uint256"
        },
        {
          "internalType": "uint256",
          "name": "submissionDeadline",
          "type": "uint256"
        },
        {
          "internalType": "uint256",
          "name": "revealDeadline",
          "type": "uint256"
        },
        {
          "internalType": "bool",
          "name": "judged",
          "type": "bool"
        },
        {
          "internalType": "bool",
          "name": "finalized",
          "type": "bool"
        },
        {
          "internalType": "bytes",
          "name": "aiReview",
          "type": "bytes"
        },
        {
          "internalType": "uint256",
          "name": "winnerIndex",
          "type": "uint256"
        }
      ],
      "stateMutability": "view",
      "type": "function"
    },
    {
      "inputs": [
        {
          "internalType": "string",
          "name": "title",
          "type": "string"
        },
        {
          "internalType": "string",
          "name": "rubric",
          "type": "string"
        },
        {
          "internalType": "uint256",
          "name": "submissionDeadline",
          "type": "uint256"
        },
        {
          "internalType": "uint256",
          "name": "revealDeadline",
          "type": "uint256"
        }
      ],
      "name": "createBounty",
      "outputs": [
        {
          "internalType": "uint256",
          "name": "bountyId",
          "type": "uint256"
        }
      ],
      "stateMutability": "payable",
      "type": "function"
    },
    {
      "inputs": [
        {
          "internalType": "uint256",
          "name": "bountyId",
          "type": "uint256"
        },
        {
          "internalType": "uint256",
          "name": "winnerIndex",
          "type": "uint256"
        }
      ],
      "name": "finalizeWinner",
      "outputs": [],
      "stateMutability": "nonpayable",
      "type": "function"
    },
    {
      "inputs": [
        {
          "internalType": "uint256",
          "name": "bountyId",
          "type": "uint256"
        }
      ],
      "name": "getBounty",
      "outputs": [
        {
          "internalType": "address",
          "name": "owner",
          "type": "address"
        },
        {
          "internalType": "string",
          "name": "title",
          "type": "string"
        },
        {
          "internalType": "string",
          "name": "rubric",
          "type": "string"
        },
        {
          "internalType": "uint256",
          "name": "reward",
          "type": "uint256"
        },
        {
          "internalType": "uint256",
          "name": "submissionDeadline",
          "type": "uint256"
        },
        {
          "internalType": "uint256",
          "name": "revealDeadline",
          "type": "uint256"
        },
        {
          "internalType": "bool",
          "name": "judged",
          "type": "bool"
        },
        {
          "internalType": "bool",
          "name": "finalized",
          "type": "bool"
        },
        {
          "internalType": "uint256",
          "name": "totalCommitted",
          "type": "uint256"
        },
        {
          "internalType": "uint256",
          "name": "totalRevealed",
          "type": "uint256"
        },
        {
          "internalType": "uint256",
          "name": "totalEligible",
          "type": "uint256"
        },
        {
          "internalType": "uint256",
          "name": "winnerIndex",
          "type": "uint256"
        },
        {
          "internalType": "bytes",
          "name": "aiReview",
          "type": "bytes"
        }
      ],
      "stateMutability": "view",
      "type": "function"
    },
    {
      "inputs": [
        {
          "internalType": "uint256",
          "name": "bountyId",
          "type": "uint256"
        },
        {
          "internalType": "uint256",
          "name": "index",
          "type": "uint256"
        }
      ],
      "name": "getSubmission",
      "outputs": [
        {
          "internalType": "address",
          "name": "submitter",
          "type": "address"
        },
        {
          "internalType": "bytes32",
          "name": "commitment",
          "type": "bytes32"
        },
        {
          "internalType": "bool",
          "name": "revealed",
          "type": "bool"
        },
        {
          "internalType": "bool",
          "name": "eligible",
          "type": "bool"
        },
        {
          "internalType": "string",
          "name": "answer",
          "type": "string"
        }
      ],
      "stateMutability": "view",
      "type": "function"
    },
    {
      "inputs": [
        {
          "internalType": "uint256",
          "name": "bountyId",
          "type": "uint256"
        },
        {
          "internalType": "address",
          "name": "participant",
          "type": "address"
        }
      ],
      "name": "hasCommitted",
      "outputs": [
        {
          "internalType": "bool",
          "name": "",
          "type": "bool"
        }
      ],
      "stateMutability": "view",
      "type": "function"
    },
    {
      "inputs": [
        {
          "internalType": "uint256",
          "name": "bountyId",
          "type": "uint256"
        },
        {
          "internalType": "bytes",
          "name": "llmInput",
          "type": "bytes"
        }
      ],
      "name": "judgeAll",
      "outputs": [],
      "stateMutability": "nonpayable",
      "type": "function"
    },
    {
      "inputs": [],
      "name": "nextBountyId",
      "outputs": [
        {
          "internalType": "uint256",
          "name": "",
          "type": "uint256"
        }
      ],
      "stateMutability": "view",
      "type": "function"
    },
    {
      "inputs": [
        {
          "internalType": "uint256",
          "name": "bountyId",
          "type": "uint256"
        },
        {
          "internalType": "string",
          "name": "answer",
          "type": "string"
        },
        {
          "internalType": "bytes32",
          "name": "salt",
          "type": "bytes32"
        }
      ],
      "name": "revealAnswer",
      "outputs": [],
      "stateMutability": "nonpayable",
      "type": "function"
    },
    {
      "inputs": [
        {
          "internalType": "uint256",
          "name": "bountyId",
          "type": "uint256"
        },
        {
          "internalType": "bytes32",
          "name": "commitment",
          "type": "bytes32"
        }
      ],
      "name": "submitCommitment",
      "outputs": [],
      "stateMutability": "nonpayable",
      "type": "function"
    }
  ],
  "bytecode": "0x6080806040523461001a5760015f55611bb4908161001f8239f35b5f80fdfe60806040526004361015610011575f80fd5b5f3560e01c80635a7722f1146100d45780638e789683146100cf578063a99ef9f5146100ca578063b7ed7071146100c5578063d5198a71146100c0578063d8964ee9146100bb578063dc2f8744146100b6578063e31202c0146100b1578063e6a3d9dc146100ac578063ee8c4bbf146100a7578063fd14fad4146100a25763fd3a83291461009d575f80fd5b610e5a565b610e3e565b610d03565b610b2f565b6109d5565b610931565b610642565b61043a565b610342565b61023f565b610224565b34610220576040366003190112610220576004355f818152600160205260409020546001600160a01b0391602435916101109084161515610e76565b805f5260016020526101298360405f2054163314610eb5565b7f2eb0120759ae6dd1505f3f092609ec7e75433fb2401ad648ebeb5bd4bd55e5b661021b61015f835f52600160205260405f2090565b9460036101e86101da8760068a0161018960ff825461017f828216610ef4565b60081c1615610f31565b6101cf60098c019161019d83548510610f71565b6101c06101bb60046101af8787610fad565b50015460081c60ff1690565b610fda565b805461ff001916610100179055565b8160088c0155610fad565b50546001600160a01b031690565b9601955f87549755169461020b5f808080858b5af1610205611068565b50611097565b6040519081529081906020820190565b0390a4005b5f80fd5b34610220575f366003190112610220576020604051600a8152f35b34610220576040366003190112610220576024356004356001600160a01b038083168303610220576102c1928261028a6102ad9360ff955f52600160205260405f2054161515610e76565b5f526001602052600a60405f20019060018060a01b03165f5260205260405f2090565b546040519116151581529081906020820190565b0390f35b5f5b8381106102d65750505f910152565b81810151838201526020016102c7565b906020916102ff815180928185528580860191016102c5565b601f01601f1916010190565b919260a09361033f969592600180871b031684526020840152151560408301521515606082015281608082015201906102e6565b90565b3461022057604080600319360112610220576004355f818152600160205282902054602435919061037d906001600160a01b03161515610e76565b5f52600160205260ff60066103a4845f20936009850161039f81548310610f71565b610fad565b5092015416156103f7576102c182516103cb816103c481600287016107bb565b0382610880565b82546001600160a01b03169360046001850154940154905194859460ff808460081c169316918661030b565b6102c1825161040581610860565b5f81526103cb565b9181601f84011215610220578235916001600160401b038311610220576020838186019501011161022057565b34610220576060366003190112610220576004356024356001600160401b038111610220576105bd91610473600992369060040161040d565b5f8381526001602052604090205460443590610499906001600160a01b03161515610e76565b61053b6104ae855f52600160205260405f2090565b6104be60048201544210156110d4565b6104cd60058201544210611120565b6104e360ff600683015461017f82821615611162565b335f908152600a82016020526040902061050890610503905b5460ff1690565b61119f565b6105138415156111e1565b6105216107d0851115611226565b335f908152600b8201602052604090205496879101610fad565b5092600484019061055c610557610553845460ff1690565b1590565b611264565b6040519160208301836105738933888a88876112a3565b0393610587601f1995868101835282610880565b5190206001870154149889826105a58294600160ff19825416179055565b9061ff00825491151560081b169061ff001916179055565b6105fc575b60405188151581523390889088907faef292219762dc4009043473c6eac34bde2cf4d48a134866b213a2682ff6b91890806020810161021b565b60039361060c9160028701611320565b610632604051918261062660208201958660209181520190565b03908101835282610880565b5190209101555f808080806105c2565b34610220576040366003190112610220576004356024356001600160401b0381116102205761077e600761077261075f6106a17fb51288ae628dca25614026175dc22a78631acc1a31f034c68c3fa241ca0fd05c95369060040161040d565b9390875f5260016020526106db60018060a01b036106c68160405f2054161515610e76565b895f52600160205260405f2054163314610eb5565b61076c61075061074161073c6106f98c5f52600160205260405f2090565b9461070a60058701544210156113e8565b600686019961072260ff8c5461017f82821615611162565b61073561072e88611abd565b151561142c565b3691611478565b611b0d565b60208082518301019101611570565b509050819892969196156115f2565b805460ff19166001179055565b01611622565b604051918291826116e5565b0390a2005b90600182811c921680156107b1575b602083101461079d57565b634e487b7160e01b5f52602260045260245ffd5b91607f1691610792565b80545f93926107c982610783565b918282526020936001916001811690815f1461082d57506001146107ef575b5050505050565b90939495505f92919252835f2092845f945b83861061081957505050500101905f808080806107e8565b805485870183015294019385908201610801565b60ff19168685015250505090151560051b010191505f808080806107e8565b634e487b7160e01b5f52604160045260245ffd5b602081019081106001600160401b0382111761087b57604052565b61084c565b90601f801991011681019081106001600160401b0382111761087b57604052565b906108bc6108b592604051938480926107bb565b0383610880565b565b9a9998949061092c97936108f26101209a969894610900938f6101409160018060a01b0316815281602082015201906102e6565b8d810360408f0152906102e6565b9560608c015260808b015260a08a0152151560c0890152151560e08801528682036101008801526102e6565b930152565b34610220576020366003190112610220576004355f52600160205260405f2060018060a01b038154166102c1604051916109798361097281600188016107bb565b0384610880565b604051936109958561098e81600285016107bb565b0386610880565b600381015491600482015490600583015460068401549260086109ba600787016108a1565b95015495604051998a9960ff808860081c169716958b6108be565b6080366003190112610220576001600160401b0360043581811161022057610a0190369060040161040d565b909160243590811161022057610a1b90369060040161040d565b9091906064356044353415610af8576102c195610ae57f736ab752f6714f3191bc874ebe0b24d2daa1e5a5281882b7c59d90d19c45fda493610ad56008610abc99610a674288116116f6565b610a72878511611750565b5f549a8b99610a808b6117b4565b5f55610a948b5f52600160205260405f2090565b80546001600160a01b0319163317815592610ab38d8a60018701611320565b60028401611320565b346003820155866004820155836005820155015f199055565b60405193849333983491866117d6565b0390a36040519081529081906020820190565b60405162461bcd60e51b815260206004820152600f60248201526e1c995dd85c99081c995c5d5a5c9959608a1b6044820152606490fd5b34610220576040366003190112610220576004355f8181526001602052604090205460243590610b69906001600160a01b03161515610e76565b610b7b825f52600160205260405f2090565b610b8a60048201544210611810565b610ba060ff600683015461017f82821615611162565b610c56600a820191610bd0610bcb6105536104fc33879060018060a01b03165f5260205260405f2090565b61185c565b610c4161075f6009830194610c2f8654978897610bef600a8a1061189c565b610bfa8215156118df565b610c0261101c565b338152916020830152610c13611056565b60408301525f60608301525f60808301525f60a083015261191e565b335f9081526020919091526040902090565b335f908152600b919091016020526040902090565b5533917f94cdee4274a7d9f10a75de5b2a8af2dc478a097d4829621fc779705fbeb040c25f80a4005b99969194610cb9610cd49461033f9f9d9a969e9b9893610cdd986108f2918f6101a09160018060a01b0316815281602082015201906102e6565b9c60608c015260808b015260a08a015260c089019015159052565b151560e0870152565b6101008501526101208401526101408301526101608201526101808184039101526102e6565b346102205760203660031901126102205760048035805f52610d4b6001916001602052610d3d60018060a01b0360405f2054161515610e76565b5f52600160205260405f2090565b600981018054919384935f928392835b868110610dd55787806102c189828a8a610d7b835460018060a01b031690565b93836003810154956004820154600583015490610dbc6007610db56002610dae6001600860068b01549a01549d016108a1565b9e016108a1565b9d016108a1565b986040519c8d9c8d9560ff808960081c16981696610c7f565b9091929394959650610df482610deb8386610fad565b50015460ff1690565b610e2e575b610e07826101af8386610fad565b610e1b575b83019087969594939291610d5b565b94610e2684916117b4565b959050610e0c565b93610e38906117b4565b93610df9565b34610220575f3660031901126102205760205f54604051908152f35b34610220575f3660031901126102205760206040516107d08152f35b15610e7d57565b60405162461bcd60e51b815260206004820152601060248201526f189bdd5b9d1e481b9bdd08199bdd5b9960821b6044820152606490fd5b15610ebc57565b60405162461bcd60e51b815260206004820152601060248201526f3737ba103137bab73a3c9037bbb732b960811b6044820152606490fd5b15610efb57565b60405162461bcd60e51b815260206004820152600e60248201526d1b9bdd081a9d5919d959081e595d60921b6044820152606490fd5b15610f3857565b60405162461bcd60e51b8152602060048201526011602482015270185b1c9958591e48199a5b985b1a5e9959607a1b6044820152606490fd5b15610f7857565b60405162461bcd60e51b815260206004820152600d60248201526c0d2dcecc2d8d2c840d2dcc8caf609b1b6044820152606490fd5b8054821015610fc6575f52600560205f20910201905f90565b634e487b7160e01b5f52603260045260245ffd5b15610fe157565b60405162461bcd60e51b815260206004820152601360248201527277696e6e6572206e6f7420656c696769626c6560681b6044820152606490fd5b6040519060c082018281106001600160401b0382111761087b57604052565b6001600160401b03811161087b57601f01601f191660200190565b6040519061106382610860565b5f8252565b3d15611092573d906110798261103b565b916110876040519384610880565b82523d5f602084013e565b606090565b1561109e57565b60405162461bcd60e51b815260206004820152600e60248201526d1c185e5b595b9d0819985a5b195960921b6044820152606490fd5b156110db57565b60405162461bcd60e51b815260206004820152601860248201527f72657665616c207068617365206e6f74207374617274656400000000000000006044820152606490fd5b1561112757565b60405162461bcd60e51b81526020600482015260136024820152721c995d99585b081c1a185cd94818db1bdcd959606a1b6044820152606490fd5b1561116957565b60405162461bcd60e51b815260206004820152600e60248201526d185b1c9958591e481a9d5919d95960921b6044820152606490fd5b156111a657565b60405162461bcd60e51b81526020600482015260136024820152721b9bc818dbdb5b5a5d1b595b9d08199bdd5b99606a1b6044820152606490fd5b156111e857565b60405162461bcd60e51b8152602060048201526016602482015275616e737765722063616e6e6f7420626520656d70747960501b6044820152606490fd5b1561122d57565b60405162461bcd60e51b815260206004820152600f60248201526e616e7377657220746f6f206c6f6e6760881b6044820152606490fd5b1561126b57565b60405162461bcd60e51b815260206004820152601060248201526f185b1c9958591e481c995d99585b195960821b6044820152606490fd5b826054969495939282370192835260601b6bffffffffffffffffffffffff1916602083015260348201520190565b601f82116112de57505050565b5f5260205f20906020601f840160051c83019310611316575b601f0160051c01905b81811061130b575050565b5f8155600101611300565b90915081906112f7565b9092916001600160401b03811161087b576113458161133f8454610783565b846112d1565b5f601f82116001146113835781906113749394955f92611378575b50508160011b915f199060031b1c19161790565b9055565b013590505f80611360565b601f19821694611396845f5260205f2090565b915f5b8781106113d05750836001959697106113b7575b505050811b019055565b01355f19600384901b60f8161c191690555f80806113ad565b90926020600181928686013581550194019101611399565b156113ef57565b60405162461bcd60e51b81526020600482015260156024820152743932bb32b0b610383430b9b2903737ba1037bb32b960591b6044820152606490fd5b1561143357565b60405162461bcd60e51b815260206004820152601760248201527f6e6f20656c696769626c65207375626d697373696f6e730000000000000000006044820152606490fd5b9291926114848261103b565b916114926040519384610880565b829481845281830111610220578281602093845f960137010152565b81601f820112156102205780516114c48161103b565b926114d26040519485610880565b818452602082840101116102205761033f91602080850191016102c5565b91909160608184031261022057604051906001600160401b0390606083018281118482101761087b576040528294815183811161022057816115339184016114ae565b84526020820151838111610220578161154d9184016114ae565b602085015260408201519283116102205760409261156b92016114ae565b910152565b9060a082820312610220578151801515810361022057926020830151906001600160401b039182811161022057836115a99186016114ae565b93604081015183811161022057846115c29183016114ae565b93606082015184811161022057816115db9184016114ae565b9360808301519081116102205761033f92016114f0565b156115fa5750565b60405162461bcd60e51b81526020600482015290819061161e9060248301906102e6565b0390fd5b91909182516001600160401b03811161087b576116438161133f8454610783565b602080601f831160011461167f575081906113749394955f926116745750508160011b915f199060031b1c19161790565b015190505f80611360565b90601f19831695611693855f5260205f2090565b925f905b8882106116cd575050836001959697106116b557505050811b019055565b01515f1960f88460031b161c191690555f80806113ad565b80600185968294968601518155019501930190611697565b90602061033f9281815201906102e6565b156116fd57565b60405162461bcd60e51b815260206004820152602560248201527f7375626d697373696f6e20646561646c696e65206d75737420626520696e2066604482015264757475726560d81b6064820152608490fd5b1561175757565b60405162461bcd60e51b815260206004820152602f60248201527f72657665616c20646561646c696e65206d75737420666f6c6c6f77207375626d60448201526e697373696f6e20646561646c696e6560881b6064820152608490fd5b5f1981146117c25760010190565b634e487b7160e01b5f52601160045260245ffd5b918060a0916060959897969360808652816080870152838601375f828286010152601f801991011683010195602083015260408201520152565b1561181757565b60405162461bcd60e51b815260206004820152601760248201527f7375626d697373696f6e20706861736520636c6f7365640000000000000000006044820152606490fd5b1561186357565b60405162461bcd60e51b8152602060048201526011602482015270185b1c9958591e4818dbdb5b5a5d1d1959607a1b6044820152606490fd5b156118a357565b60405162461bcd60e51b8152602060048201526014602482015273746f6f206d616e79207375626d697373696f6e7360601b6044820152606490fd5b156118e657565b60405162461bcd60e51b815260206004820152601060248201526f195b5c1d1e4818dbdb5b5a5d1b595b9d60821b6044820152606490fd5b80546801000000000000000081101561087b5761194390600192600182018155610fad565b919091611aaa57825182546001600160a01b0319166001600160a01b039190911617825560209060208401516001840155600283019160408501518051926001600160401b03841161087b576119a38461199d8754610783565b876112d1565b602092601f8511600114611a2f57505093611a19936119e18460a0956004956108bc9a995f926116745750508160011b915f199060031b1c19161790565b90555b606085015160038201550192611a12611a006080830151151590565b859060ff801983541691151516179055565b0151151590565b815461ff00191690151560081b61ff0016179055565b929190601f19851690611a45875f5260205f2090565b945f915b838310611a9357505050846004946108bc999894611a19989460a09860019510611a7b575b505050811b0190556119e4565b01515f1960f88460031b161c191690555f8080611a6e565b848601518755958601959481019491810191611a49565b634e487b7160e01b5f525f60045260245ffd5b5f915f5b600983018054821015611b07576004611adc8360ff93610fad565b50015460081c16611af0575b600101611ac1565b926001611afe6009926117b4565b94915050611ae8565b50509050565b5f806020928381519101826108025af190611b26611068565b9115611b7857815182019060408382840193031261022057808301516001600160401b0390818111610220578383611b60928701016114ae565b5060408401519081116102205761033f9301016114ae565b81519101fdfea2646970667358221220814218226382b322bf5e3a7ebee2def4c783a72a4d10da2c8a75b25b68648e3d64736f6c63430008180033",
  "linkReferences": {},
  "deployedLinkReferences": {},
  "immutableReferences": {},
  "inputSourceName": "project/contracts/AIJudgeCommitReveal.sol",
  "buildInfoId": "solc-0_8_24-db5c119c62edac07cb05b28bc75709d974e398d3"
}